:100000000C9447000C9464000C9464000C946400FD
:100010000C9464000C9464000C9464000C946400D0
:100020000C9464000C9464000C9464000C946400C0
:100030000C9464000C9464000C9464000C946400B0
:100040000C9464000C9464000C9464000C946400A0
:100050000C9464000C9464000C9464000C94640090
:100060000C9464000C9464000C9464000C94640080
:100070000C9464000C9464000C94640077017F017C
:10008000840189018E0196019E01A301A80111241A
:100090001FBECFEFD0E1DEBFCDBF11E0A0E0B1E0E9
:1000A000ECE6FAE002C005900D92AE32B107D9F746
:1000B00021E0AEE2B1E001C01D92AE32B207E1F73D
:1000C0000E943F020C9434050C9400000E94B2017F
:1000D0000E94DA00C0E001C0C0E080E80E94C400D5
:1000E0008CE191E00E940A0188B1826088B988B1F0
:1000F0008D7F88B92FE38DE093E0215080409040C0
:10010000E1F700C0000065E081E00E9453010C2F80
:1001100010E0C8010E941701F801E050FF4F8081F4
:100120000E94DF01C83050F0F801E45FFE4F80818B
:100130000E941F0280E00E94FF0109C0F801EC5EEE
:10014000FE4F80810E94FF0180E00E941F02C801D3
:100150000E9461012FE38DE093E0215080409040A8
:10016000E1F700C0000081E00E94C4002FE38DE0B1
:1001700093E0215080409040E1F700C00000CF5F45
:10018000C03108F0A9CFA9CF0E94BF018BB18F7EEB
:100190008BB982B1886082B983EC99E00197F1F75D
:1001A00000C0000082B1877F82B990E19A95F1F793
:1001B00000C008958AB180618AB981B1886081B92F
:1001C00082B1877F82B987EA91E60197F1F700C093
:1001D000000088E30E94C4008CE00E94C40081E01B
:1001E0000E94C40086E00E94C40008950E94BF01DE
:1001F0008BB180618BB982B1886082B983E08A95C6
:10020000F1F7000082B1877F82B980E18A95F1F72A
:1002100000C00895CF93DF93EC0103C021960E94A4
:10022000F60088818111FACFDF91CF9108950F9365
:100230001F93CF93DF93CDB7DEB760970FB6F894D7
:10024000DEBF0FBECDBF9F938F938AE291E09F9355
:100250008F93CE0101969F938F930E944A020F9035
:100260000F900F900F900F900F9000E010E00DC0D6
:10027000E1E0F0E0EC0FFD1FE00FF11F808188232B
:1002800039F00E94F6000F5F1F4F0031110584F313
:1002900060960FB6F894DEBF0FBECDBFDF91CF9151
:1002A0001F910F910895811105C080E8860F0E946B
:1002B000C4000895813021F480EC860F0E94C400B0
:1002C0000895E82F87B1816087B98FEF84B9E9304D
:1002D00020F015B888B18E7F88B98E2F90E08930D4
:1002E0009105D8F5FC01E25CFF4F0C94440215B86F
:1002F00088B18E7F88B985B1826085B9089515B8B7
:1003000085B1886085B9089515B885B1806885B9CB
:10031000089515B885B1806485B9089515B885B17B
:10032000816085B985B1806285B9089515B885B1B8
:10033000816085B985B1806185B9089515B885B1A9
:10034000816085B9089515B885B1846085B908952F
:1003500015B888B1816088B9089515B888B18170E1
:1003600088B908958AB1806E8AB987B18E6087B9DD
:100370008BB18F7B8BB988B18D7F88B9089590E060
:1003800018C0282F30E0092E02C0359527950A9411
:10039000E2F720FF04C02BB120622BB903C02BB1C0
:1003A0002F7D2BB928B1226028B928B12D7F28B91B
:1003B0009F5F983030F38BB180688BB9089590E0DF
:1003C00018C0282F30E0092E02C0359527950A94D1
:1003D000E2F720FF04C02BB120622BB903C02BB180
:1003E0002F7D2BB92BB120642BB92BB12F7B2BB9CF
:1003F0009F5F983030F38BB180688BB9089590E09F
:1004000018C0282F30E0092E02C0359527950A9490
:10041000E2F720FF04C02BB120622BB903C02BB13F
:100420002F7D2BB928B1246028B928B12B7F28B99A
:100430009F5F983030F38BB180688BB9089590E05E
:1004400018C0282F30E0092E02C0359527950A9450
:10045000E2F720FF04C02BB120622BB903C02BB1FF
:100460002F7D2BB928B1286028B928B1277F28B95A
:100470009F5F983030F38BB180688BB908950E94EC
:10048000660080E090E00895EE0FFF1F0590F49164
:10049000E02D0994AEE0B0E0E0E5F2E00C940B054D
:1004A0000D891E8986E08C831A8309838FEF9FE76D
:1004B0009E838D83AE01475E5F4F6F89788DCE013D
:1004C00001960E946C02EF81F885E00FF11F108207
:1004D0002E96E4E00C942705ABE0B0E0E2E7F2E012
:1004E0000C94FD046C017B018A01FC0117821682C9
:1004F000838181FFCCC1CE0101963C01F60193813D
:10050000F70193FD859193FF81917F01882309F481
:10051000BAC1853239F493FD859193FF81917F01B2
:10052000853229F4B60190E00E946304E7CF912C54
:10053000212C312CFFE1F315D8F08B3279F038F40F
:10054000803279F08332A1F4232D20611DC08D32D9
:1005500061F0803369F4232D216016C0832D826001
:10056000382EE32DE4603E2E2AC0F32DF8601DC026
:1005700037FC2DC020ED280F2A3040F08E32B9F420
:1005800036FC81C1232D2064322E19C036FE06C0F0
:100590008AE0989E200D1124922E11C0EAE02E9E32
:1005A000200D1124222EF32DF0623F2E08C08C3630
:1005B00021F4832D8068382E02C0883641F4F7017B
:1005C00093FD859193FF81917F018111B3CF982F86
:1005D0009F7D9554933028F40C5F1F4F9FE39983C0
:1005E0000DC0833631F0833771F0833509F059C07F
:1005F00021C0F801808189830E5F1F4F8824839476
:10060000912C530113C02801F2E04F0E511CF80148
:10061000A080B18036FE03C0692D70E002C06FEF8C
:100620007FEFC5010E9458044C018201F32DFF7732
:100630003F2E16C0280122E0420E511CF801A08076
:10064000B18036FE03C0692D70E002C06FEF7FEF0E
:10065000C5010E944D044C01F32DF0683F2E82012C
:1006600033FC1BC0822D90E088169906B0F4B601C9
:1006700080E290E00E9463042A94F4CFF50137FCF5
:10068000859137FE81915F01B60190E00E9463047D
:1006900021102A9421E0821A91088114910471F7A3
:1006A000E8C0843611F0893641F5F80137FE07C0FD
:1006B00060817181828193810C5F1F4F08C06081CE
:1006C0007181072E000C880B990B0E5F1F4FF32DC5
:1006D000FF763F2E97FF09C09095809570956195A4
:1006E0007F4F8F4F9F4FF0683F2E2AE030E0A301ED
:1006F0000E949F04882E861845C0853731F4232D2B
:100700002F7EB22E2AE030E025C0932D997FB92E9E
:100710008F36C1F018F4883579F0B5C0803719F0FC
:10072000883721F0B0C0E92FE061BE2EB4FE0DC0C5
:10073000FB2DF460BF2E09C034FE0AC0292F2660AD
:10074000B22E06C028E030E005C020E130E002C053
:1007500020E132E0F801B7FE07C06081718182813B
:1007600093810C5F1F4F06C06081718180E090E033
:100770000E5F1F4FA3010E949F04882E8618FB2D39
:10078000FF773F2E36FE0DC0232D2E7FA22E89141B
:1007900058F434FE0BC032FC09C0832D8E7EA82E87
:1007A00005C0B82CA32C03C0B82C01C0B92CA4FEE2
:1007B0000FC0FE01E80DF11D8081803321F49A2DD8
:1007C000997EA92E09C0A2FE06C0B394B39404C0BA
:1007D0008A2D867809F0B394A3FC11C0A0FE06C050
:1007E000B21488F4280C922C9B180EC0B21460F43A
:1007F000B60180E290E00E946304B394F7CFB21494
:1008000018F42B1802C0982C212CA4FE10C0B6019D
:1008100080E390E00E946304A2FE17C0A1FC03C025
:1008200088E790E002C088E590E0B6010CC08A2D10
:10083000867859F0A1FE02C08BE201C080E2A7FCDD
:100840008DE2B60190E00E946304891438F4B60189
:1008500080E390E00E9463049A94F7CF8A94F301B6
:10086000E80DF11D8081B60190E00E9463048110C3
:10087000F5CF222009F442CEB60180E290E00E943A
:1008800063042A94F6CFF6018681978102C08FEF28
:100890009FEF2B96E2E10C941905FC010590615045
:1008A00070400110D8F7809590958E0F9F1F089586
:1008B000FC016150704001900110D8F7809590952F
:1008C0008E0F9F1F08950F931F93CF93DF93FB010C
:1008D000238121FD03C08FEF9FEF2CC022FF16C0A4
:1008E00046815781248135814217530744F4A08102
:1008F000B1819D012F5F3F4F318320838C932681EF
:1009000037812F5F3F4F3783268314C08B01EC0163
:10091000FB010084F185E02D0995892BE1F6D801D2
:1009200016968D919C911797019617969C938E938E
:100930001697CE01DF91CF911F910F910895FA0183
:10094000AA27283051F1203181F1E8946F936E7F0E
:100950006E5F7F4F8F4F9F4FAF4FB1E03ED0B4E0FF
:100960003CD0670F781F891F9A1FA11D680F791F40
:100970008A1F911DA11D6A0F711D811D911DA11D51
:1009800020D009F468943F912AE0269F1124301961
:10099000305D3193DEF6CF010895462F4770405DFC
:1009A0004193B3E00FD0C9F7F6CF462F4F70405DAB
:1009B0004A3318F0495D31FD4052419302D0A9F706
:1009C000EACFB4E0A6959795879577956795BA9500
:1009D000C9F700976105710508959B01AC010A2EC6
:1009E00006945795479537952795BA95C9F7620F9D
:1009F000731F841F951FA01D08952F923F924F9241
:100A00005F926F927F928F929F92AF92BF92CF929E
:100A1000DF92EF92FF920F931F93CF93DF93CDB7A7
:100A2000DEB7CA1BDB0B0FB6F894DEBF0FBECDBF1F
:100A300009942A88398848885F846E847D848C84F0
:100A40009B84AA84B984C884DF80EE80FD800C81F9
:100A50001B81AA81B981CE0FD11D0FB6F894DEBFDC
:0C0A60000FBECDBFED010895F894FFCF4C
:100A6C003F065B4F666D7D077F6FBF86DBCFE6ED84
:100A7C00FD87FFEF0102040810204080456D70696E
:0E0A8C00726F6E6963732E2E2E0025640000BB
:00000001FF
