S012000046616A65725F56322E302E73726563E5
S11300000C943E000C945B000C945B000C945B001D
S11300100C945B000C945B000C945B000C945B00F0
S11300200C945B000C945B000C945B000C945B00E0
S11300300C945B000C945B000C945B000C945B00D0
S11300400C945B000C945B000C945B000C945B00C0
S11300500C945B000C945B000C945B000C945B00B0
S11300600C945B000C945B000C945B000C945B00A0
S11300700C945B000C945B000C945B0011241FBE79
S1130080CFEFD0E1DEBFCDBF12E0A0E0B1E0E0E011
S1130090F7E002C005900D92A237B107D9F722E02C
S11300A0A2E7B2E001C01D92A938B207E1F70E94AD
S11300B079030C947E030C940000EF92FF921F933B
S11300C0CF93DF930E94AA0281E00E94940280E809
S11300D00E9494028CE192E00E94DF0288B1826067
S11300E088B988B18D7F88B910E01CC02FE788E3F8
S11300F091E0215080409040E1F700C00000C12F02
S1130100D0E0FE01EC5EFE4F7F0180810E94390346
S1130110F70180810E945903C050DF4F88810E94FB
S113012019031F5F1F3010F3DF91CF911F91FF90D0
S1130130EF90089500990BC02FEF84E39CE02150C9
S113014080409040E1F700C000000E94C000089584
S113015080E80E94940287E292E00E94DF02019903
S1130160FECF80EC0E94940281E392E00E94DF02C1
S11301700099F5CF0895811102C00E94A800089546
S1130180CF93DF93CDB7DEB7C054D1400FB6F89408
S1130190DEBF0FBECDBFDE01119680E491E0FD010C
S11301A09C01119221503040E1F78AE0E7E2F2E04D
S11301B001900D928A95E1F796E0FE013B96DF01EE
S11301C0292F1D922A95E9F78DE0ECE1F1E0DE019B
S11301D0519601900D928A95E1F723E0FE017E96F7
S11301E0DF01322F1D923A95E9F78BE0ECE2F1E062
S11301F0DE01919601900D928A95E1F785E0FE016A
S1130200BC96DF01382F1D923A95E9F73CE0ECE308
S1130210F1E0DE01D19601900D923A95E1F7FE01ED
S1130220FD9634E0DF011D923A95E9F730E1E1E60D
S1130230F2E0DE01AF5BBF4F01900D923A95E1F71A
S11302403BE0ECE4F1E0DE01AF5ABF4F01900D92C8
S11302503A95E1F7E1E5F0E0EC0FFD1F3B96DF0195
S1130260382F1D923A95E9F739E0ECE5F1E0DE012B
S1130270AF59BF4F01900D923A95E1F737E0E1E6AF
S1130280F0E0EC0FFD1F3996DF01432F1D924A95D4
S1130290E9F74AE0ECE6F1E0DE01AF58BF4F019028
S11302A00D924A95E1F7E1E7F0E0EC0FFD1F3A9675
S11302B0DF01492F1D924A95E9F74AE0ECE7F1E0A6
S11302C0DE01AF57BF4F01900D924A95E1F7E1E887
S11302D0F0E0EC0FFD1F3A96DF01492F1D924A957D
S11302E0E9F74BE0ECE8F1E0DE01AF56BF4F0190D7
S11302F00D924A95E1F7E1E9F0E0EC0FFD1F3B9622
S1130300DF01482F1D924A95E9F74BE0ECE9F1E053
S1130310DE01AF55BF4F01900D924A95E1F7E1EA36
S1130320F0E0EC0FFD1F3B96DF01482F1D924A952C
S1130330E9F74BE0ECEAF1E0DE01AF54BF4F019086
S11303400D924A95E1F7E1EBF0E0EC0FFD1F3B96CF
S1130350DF01482F1D924A95E9F74BE0ECEBF1E001
S1130360DE01AF53BF4F01900D924A95E1F7E1ECE6
S1130370F0E0EC0FFD1F3B96DF01482F1D924A95DC
S1130380E9F74AE0ECECF1E0DE01AF52BF4F019037
S11303900D924A95E1F7E1EDF0E0EC0FFD1F3A967E
S11303A0DF011D929A95E9F79BE0ECEDF1E0DE01A7
S11303B0AF51BF4F01900D929A95E1F7E1EEF0E055
S11303C0EC0FFD1F3B96DF01482F1D924A95E9F77C
S11303D099E0ECEEF1E0DE01AF50BF4F01900D92D9
S11303E09A95E1F7E1EFF0E0EC0FFD1F3996DF019C
S11303F01D923A95E9F79DE0ECEFF1E0DE01AF5F85
S1130400BE4F01900D929A95E1F7E1E0F1E0EC0F17
S1130410FD1F3D96DF011D922A95E9F79BE0ECE074
S1130420F2E0DE01AF5EBE4F01900D929A95E1F7C6
S1130430E1E1F1E0EC0FFD1F3B96DF011D928A958F
S1130440E9F780E80E94940286E392E00E94DF02CA
S113045080EC0E94940286E492E00E94DF020199FB
S11304601AC080EC0E94940280E592E00E94DF02B0
S1130470BFEFE4E3FCE0B150E040F040E1F700C03E
S11304800000809173028F5F809373028231F8F0D1
S1130490109273021CC002991AC080EC0E9494024C
S11304A080E592E00E94DF022FEF34E34CE021501C
S11304B030404040E1F700C0000080917302815059
S11304C080937302823118F081E180937302009962
S11304D012C080E80E94940280E592E00E94DF024C
S11304E080EC0E94940280E592E00E94DF028091F9
S11304F073020E94BB0080E80E94940286E392E0AB
S11305000E94DF0280EC0E94940280917302A1E0B9
S1130510B0E0AC0FBD1FE0E18E9FA00DB11D112412
S1130520CD010E94DF029BCF0E94F9028BB18F7E26
S11305308BB982B1886082B98FE19EE40197F1F7AB
S113054000C0000082B1877F82B995E89A95F1F7DF
S1130550000008958AB180618AB981B1886081B947
S113056082B1877F82B90E94EC022FEF80E792E08C
S1130570215080409040E1F700C0000088E30E94D1
S113058094028CE00E94940281E00E94940286E02E
S11305900E94940208950E94F9028BB180618BB984
S11305A082B1886082B98AE18A95F1F700C082B18C
S11305B0877F82B985E88A95F1F700000895CF9383
S11305C0DF93EC0103C021960E94CB028881811144
S11305D0FACFDF91CF9108958AB1806E8AB987B13D
S11305E08E6087B98BB18F7B8BB988B18D7F88B9C9
S11305F0089590E018C0282F30E0092E02C03595E8
S113060027950A94E2F720FF04C02BB120622BB98E
S113061003C02BB12F7D2BB928B1226028B928B192
S11306202D7F28B99F5F983030F38BB180688BB9E8
S1130630089590E018C0282F30E0092E02C03595A7
S113064027950A94E2F720FF04C02BB120622BB94E
S113065003C02BB12F7D2BB92BB120642BB92BB147
S11306602F7B2BB99F5F983030F38BB180688BB9A7
S1130670089590E018C0282F30E0092E02C0359567
S113068027950A94E2F720FF04C02BB120622BB90E
S113069003C02BB12F7D2BB928B1246028B928B110
S11306A02B7F28B99F5F983030F38BB180688BB96A
S11306B0089590E018C0282F30E0092E02C0359527
S11306C027950A94E2F720FF04C02BB120622BB9CE
S11306D003C02BB12F7D2BB928B1286028B928B1CC
S11306E0277F28B99F5F983030F38BB180688BB92E
S11306F008950E945D000E949A00FDCFF894FFCFF8
S11307003F065B4F666D7D077F6FBF86DBCFE6EDEF
S1130710FD87FFEF010204081020408044697370D4
S11307206C61792054797065000000004C69676839
S1130730742054696D65000000000000446F6F72FE
S1130740204E756D6265720000000000496E737082
S113075020537065656400000000000052657365F5
S1130760727665640000000000000000446F702091
S113077054696D65720000000000000044636C2041
S113078054696D65720000000000000057616974CF
S11307902054696D6572000000000000536C6F778F
S11307A02054696D65720000000000004661737496
S11307B02054696D65720000000000004C6F636B8B
S11307C0204572726F7200000000000043616D20CA
S11307D054696D65720000000000000043616D20E3
S11307E0547269616C7300000000000054696D6507
S11307F0204F757400000000000000005365742051
S113080050617373776F726400000000436F7272FB
S1130810656374696F6E000000000000456D7069C7
S1130820726F6E69637300446F6F72204D6F6465FD
S1130830004175746F0020203E50726F6772616DC5
S11308406D696E673C00707265737320282B2900F4
S11308502020202020202020202020202020202094
S11308600043616C6C20436F6C6C656374697665DE
S1050870000082
S9030000FC
